{
	"contracts/5_Struct.sol": {
		"Struct": {
			"abi": [
				{
					"inputs": [],
					"name": "getStudent",
					"outputs": [
						{
							"components": [
								{
									"internalType": "string",
									"name": "name",
									"type": "string"
								},
								{
									"internalType": "uint256",
									"name": "number",
									"type": "uint256"
								}
							],
							"internalType": "struct Struct.Student",
							"name": "",
							"type": "tuple"
						}
					],
					"stateMutability": "view",
					"type": "function"
				},
				{
					"inputs": [
						{
							"internalType": "string",
							"name": "_name",
							"type": "string"
						},
						{
							"internalType": "uint256",
							"name": "_number",
							"type": "uint256"
						}
					],
					"name": "setStudent",
					"outputs": [],
					"stateMutability": "nonpayable",
					"type": "function"
				}
			],
			"devdoc": {
				"kind": "dev",
				"methods": {},
				"version": 1
			},
			"evm": {
				"assembly": "    /* \"contracts/5_Struct.sol\":67:540  contract Struct {... */\n  mstore(0x40, 0x80)\n  callvalue\n  dup1\n  iszero\n  tag_1\n  jumpi\n  0x00\n  dup1\n  revert\ntag_1:\n  pop\n  dataSize(sub_0)\n  dup1\n  dataOffset(sub_0)\n  0x00\n  codecopy\n  0x00\n  return\nstop\n\nsub_0: assembly {\n        /* \"contracts/5_Struct.sol\":67:540  contract Struct {... */\n      mstore(0x40, 0x80)\n      callvalue\n      dup1\n      iszero\n      tag_1\n      jumpi\n      0x00\n      dup1\n      revert\n    tag_1:\n      pop\n      jumpi(tag_2, lt(calldatasize, 0x04))\n      shr(0xe0, calldataload(0x00))\n      dup1\n      0x9b4d52dd\n      eq\n      tag_3\n      jumpi\n      dup1\n      0xb439548d\n      eq\n      tag_4\n      jumpi\n    tag_2:\n      0x00\n      dup1\n      revert\n        /* \"contracts/5_Struct.sol\":329:437  function setStudent(string memory _name, uint _number) public {... */\n    tag_3:\n      tag_5\n      0x04\n      dup1\n      calldatasize\n      sub\n      dup2\n      add\n      swap1\n      tag_6\n      swap2\n      swap1\n      tag_7\n      jump\t// in\n    tag_6:\n      tag_8\n      jump\t// in\n    tag_5:\n      stop\n        /* \"contracts/5_Struct.sol\":445:530  function getStudent() public view returns (Student memory){... */\n    tag_4:\n      tag_9\n      tag_10\n      jump\t// in\n    tag_9:\n      mload(0x40)\n      tag_11\n      swap2\n      swap1\n      tag_12\n      jump\t// in\n    tag_11:\n      mload(0x40)\n      dup1\n      swap2\n      sub\n      swap1\n      return\n        /* \"contracts/5_Struct.sol\":329:437  function setStudent(string memory _name, uint _number) public {... */\n    tag_8:\n        /* \"contracts/5_Struct.sol\":406:429  Student(_name, _number) */\n      mload(0x40)\n      dup1\n      0x40\n      add\n      0x40\n      mstore\n      dup1\n        /* \"contracts/5_Struct.sol\":414:419  _name */\n      dup4\n        /* \"contracts/5_Struct.sol\":406:429  Student(_name, _number) */\n      dup2\n      mstore\n      0x20\n      add\n        /* \"contracts/5_Struct.sol\":421:428  _number */\n      dup3\n        /* \"contracts/5_Struct.sol\":406:429  Student(_name, _number) */\n      dup2\n      mstore\n      pop\n        /* \"contracts/5_Struct.sol\":402:403  s */\n      0x00\n        /* \"contracts/5_Struct.sol\":402:429  s = Student(_name, _number) */\n      dup1\n      dup3\n      add\n      mload\n      dup2\n      0x00\n      add\n      swap1\n      dup2\n      tag_14\n      swap2\n      swap1\n      tag_15\n      jump\t// in\n    tag_14:\n      pop\n      0x20\n      dup3\n      add\n      mload\n      dup2\n      0x01\n      add\n      sstore\n      swap1\n      pop\n      pop\n        /* \"contracts/5_Struct.sol\":329:437  function setStudent(string memory _name, uint _number) public {... */\n      pop\n      pop\n      jump\t// out\n        /* \"contracts/5_Struct.sol\":445:530  function getStudent() public view returns (Student memory){... */\n    tag_10:\n        /* \"contracts/5_Struct.sol\":488:502  Student memory */\n      tag_16\n      tag_17\n      jump\t// in\n    tag_16:\n        /* \"contracts/5_Struct.sol\":521:522  s */\n      0x00\n        /* \"contracts/5_Struct.sol\":514:522  return s */\n      mload(0x40)\n      dup1\n      0x40\n      add\n      0x40\n      mstore\n      swap1\n      dup2\n      0x00\n      dup3\n      add\n      dup1\n      sload\n      tag_19\n      swap1\n      tag_20\n      jump\t// in\n    tag_19:\n      dup1\n      0x1f\n      add\n      0x20\n      dup1\n      swap2\n      div\n      mul\n      0x20\n      add\n      mload(0x40)\n      swap1\n      dup2\n      add\n      0x40\n      mstore\n      dup1\n      swap3\n      swap2\n      swap1\n      dup2\n      dup2\n      mstore\n      0x20\n      add\n      dup3\n      dup1\n      sload\n      tag_21\n      swap1\n      tag_20\n      jump\t// in\n    tag_21:\n      dup1\n      iszero\n      tag_22\n      jumpi\n      dup1\n      0x1f\n      lt\n      tag_23\n      jumpi\n      0x0100\n      dup1\n      dup4\n      sload\n      div\n      mul\n      dup4\n      mstore\n      swap2\n      0x20\n      add\n      swap2\n      jump(tag_22)\n    tag_23:\n      dup3\n      add\n      swap2\n      swap1\n      0x00\n      mstore\n      keccak256(0x00, 0x20)\n      swap1\n    tag_24:\n      dup2\n      sload\n      dup2\n      mstore\n      swap1\n      0x01\n      add\n      swap1\n      0x20\n      add\n      dup1\n      dup4\n      gt\n      tag_24\n      jumpi\n      dup3\n      swap1\n      sub\n      0x1f\n      and\n      dup3\n      add\n      swap2\n    tag_22:\n      pop\n      pop\n      pop\n      pop\n      pop\n      dup2\n      mstore\n      0x20\n      add\n      0x01\n      dup3\n      add\n      sload\n      dup2\n      mstore\n      pop\n      pop\n      swap1\n      pop\n        /* \"contracts/5_Struct.sol\":445:530  function getStudent() public view returns (Student memory){... */\n      swap1\n      jump\t// out\n    tag_17:\n      mload(0x40)\n      dup1\n      0x40\n      add\n      0x40\n      mstore\n      dup1\n      0x60\n      dup2\n      mstore\n      0x20\n      add\n      0x00\n      dup2\n      mstore\n      pop\n      swap1\n      jump\t// out\n        /* \"#utility.yul\":7:82   */\n    tag_25:\n        /* \"#utility.yul\":40:46   */\n      0x00\n        /* \"#utility.yul\":73:75   */\n      0x40\n        /* \"#utility.yul\":67:76   */\n      mload\n        /* \"#utility.yul\":57:76   */\n      swap1\n      pop\n        /* \"#utility.yul\":7:82   */\n      swap1\n      jump\t// out\n        /* \"#utility.yul\":88:205   */\n    tag_26:\n        /* \"#utility.yul\":197:198   */\n      0x00\n        /* \"#utility.yul\":194:195   */\n      dup1\n        /* \"#utility.yul\":187:199   */\n      revert\n        /* \"#utility.yul\":211:328   */\n    tag_27:\n        /* \"#utility.yul\":320:321   */\n      0x00\n        /* \"#utility.yul\":317:318   */\n      dup1\n        /* \"#utility.yul\":310:322   */\n      revert\n        /* \"#utility.yul\":334:451   */\n    tag_28:\n        /* \"#utility.yul\":443:444   */\n      0x00\n        /* \"#utility.yul\":440:441   */\n      dup1\n        /* \"#utility.yul\":433:445   */\n      revert\n        /* \"#utility.yul\":457:574   */\n    tag_29:\n        /* \"#utility.yul\":566:567   */\n      0x00\n        /* \"#utility.yul\":563:564   */\n      dup1\n        /* \"#utility.yul\":556:568   */\n      revert\n        /* \"#utility.yul\":580:682   */\n    tag_30:\n        /* \"#utility.yul\":621:627   */\n      0x00\n        /* \"#utility.yul\":672:674   */\n      0x1f\n        /* \"#utility.yul\":668:675   */\n      not\n        /* \"#utility.yul\":663:665   */\n      0x1f\n        /* \"#utility.yul\":656:661   */\n      dup4\n        /* \"#utility.yul\":652:666   */\n      add\n        /* \"#utility.yul\":648:676   */\n      and\n        /* \"#utility.yul\":638:676   */\n      swap1\n      pop\n        /* \"#utility.yul\":580:682   */\n      swap2\n      swap1\n      pop\n      jump\t// out\n        /* \"#utility.yul\":688:868   */\n    tag_31:\n        /* \"#utility.yul\":736:813   */\n      0x4e487b7100000000000000000000000000000000000000000000000000000000\n        /* \"#utility.yul\":733:734   */\n      0x00\n        /* \"#utility.yul\":726:814   */\n      mstore\n        /* \"#utility.yul\":833:837   */\n      0x41\n        /* \"#utility.yul\":830:831   */\n      0x04\n        /* \"#utility.yul\":823:838   */\n      mstore\n        /* \"#utility.yul\":857:861   */\n      0x24\n        /* \"#utility.yul\":854:855   */\n      0x00\n        /* \"#utility.yul\":847:862   */\n      revert\n        /* \"#utility.yul\":874:1155   */\n    tag_32:\n        /* \"#utility.yul\":957:984   */\n      tag_72\n        /* \"#utility.yul\":979:983   */\n      dup3\n        /* \"#utility.yul\":957:984   */\n      tag_30\n      jump\t// in\n    tag_72:\n        /* \"#utility.yul\":949:955   */\n      dup2\n        /* \"#utility.yul\":945:985   */\n      add\n        /* \"#utility.yul\":1087:1093   */\n      dup2\n        /* \"#utility.yul\":1075:1085   */\n      dup2\n        /* \"#utility.yul\":1072:1094   */\n      lt\n        /* \"#utility.yul\":1051:1069   */\n      0xffffffffffffffff\n        /* \"#utility.yul\":1039:1049   */\n      dup3\n        /* \"#utility.yul\":1036:1070   */\n      gt\n        /* \"#utility.yul\":1033:1095   */\n      or\n        /* \"#utility.yul\":1030:1118   */\n      iszero\n      tag_73\n      jumpi\n        /* \"#utility.yul\":1098:1116   */\n      tag_74\n      tag_31\n      jump\t// in\n    tag_74:\n        /* \"#utility.yul\":1030:1118   */\n    tag_73:\n        /* \"#utility.yul\":1138:1148   */\n      dup1\n        /* \"#utility.yul\":1134:1136   */\n      0x40\n        /* \"#utility.yul\":1127:1149   */\n      mstore\n        /* \"#utility.yul\":917:1155   */\n      pop\n        /* \"#utility.yul\":874:1155   */\n      pop\n      pop\n      jump\t// out\n        /* \"#utility.yul\":1161:1290   */\n    tag_33:\n        /* \"#utility.yul\":1195:1201   */\n      0x00\n        /* \"#utility.yul\":1222:1242   */\n      tag_76\n      tag_25\n      jump\t// in\n    tag_76:\n        /* \"#utility.yul\":1212:1242   */\n      swap1\n      pop\n        /* \"#utility.yul\":1251:1284   */\n      tag_77\n        /* \"#utility.yul\":1279:1283   */\n      dup3\n        /* \"#utility.yul\":1271:1277   */\n      dup3\n        /* \"#utility.yul\":1251:1284   */\n      tag_32\n      jump\t// in\n    tag_77:\n        /* \"#utility.yul\":1161:1290   */\n      swap2\n      swap1\n      pop\n      jump\t// out\n        /* \"#utility.yul\":1296:1604   */\n    tag_34:\n        /* \"#utility.yul\":1358:1362   */\n      0x00\n        /* \"#utility.yul\":1448:1466   */\n      0xffffffffffffffff\n        /* \"#utility.yul\":1440:1446   */\n      dup3\n        /* \"#utility.yul\":1437:1467   */\n      gt\n        /* \"#utility.yul\":1434:1490   */\n      iszero\n      tag_79\n      jumpi\n        /* \"#utility.yul\":1470:1488   */\n      tag_80\n      tag_31\n      jump\t// in\n    tag_80:\n        /* \"#utility.yul\":1434:1490   */\n    tag_79:\n        /* \"#utility.yul\":1508:1537   */\n      tag_81\n        /* \"#utility.yul\":1530:1536   */\n      dup3\n        /* \"#utility.yul\":1508:1537   */\n      tag_30\n      jump\t// in\n    tag_81:\n        /* \"#utility.yul\":1500:1537   */\n      swap1\n      pop\n        /* \"#utility.yul\":1592:1596   */\n      0x20\n        /* \"#utility.yul\":1586:1590   */\n      dup2\n        /* \"#utility.yul\":1582:1597   */\n      add\n        /* \"#utility.yul\":1574:1597   */\n      swap1\n      pop\n        /* \"#utility.yul\":1296:1604   */\n      swap2\n      swap1\n      pop\n      jump\t// out\n        /* \"#utility.yul\":1610:1756   */\n    tag_35:\n        /* \"#utility.yul\":1707:1713   */\n      dup3\n        /* \"#utility.yul\":1702:1705   */\n      dup2\n        /* \"#utility.yul\":1697:1700   */\n      dup4\n        /* \"#utility.yul\":1684:1714   */\n      calldatacopy\n        /* \"#utility.yul\":1748:1749   */\n      0x00\n        /* \"#utility.yul\":1739:1745   */\n      dup4\n        /* \"#utility.yul\":1734:1737   */\n      dup4\n        /* \"#utility.yul\":1730:1746   */\n      add\n        /* \"#utility.yul\":1723:1750   */\n      mstore\n        /* \"#utility.yul\":1610:1756   */\n      pop\n      pop\n      pop\n      jump\t// out\n        /* \"#utility.yul\":1762:2187   */\n    tag_36:\n        /* \"#utility.yul\":1840:1845   */\n      0x00\n        /* \"#utility.yul\":1865:1931   */\n      tag_84\n        /* \"#utility.yul\":1881:1930   */\n      tag_85\n        /* \"#utility.yul\":1923:1929   */\n      dup5\n        /* \"#utility.yul\":1881:1930   */\n      tag_34\n      jump\t// in\n    tag_85:\n        /* \"#utility.yul\":1865:1931   */\n      tag_33\n      jump\t// in\n    tag_84:\n        /* \"#utility.yul\":1856:1931   */\n      swap1\n      pop\n        /* \"#utility.yul\":1954:1960   */\n      dup3\n        /* \"#utility.yul\":1947:1952   */\n      dup2\n        /* \"#utility.yul\":1940:1961   */\n      mstore\n        /* \"#utility.yul\":1992:1996   */\n      0x20\n        /* \"#utility.yul\":1985:1990   */\n      dup2\n        /* \"#utility.yul\":1981:1997   */\n      add\n        /* \"#utility.yul\":2030:2033   */\n      dup5\n        /* \"#utility.yul\":2021:2027   */\n      dup5\n        /* \"#utility.yul\":2016:2019   */\n      dup5\n        /* \"#utility.yul\":2012:2028   */\n      add\n        /* \"#utility.yul\":2009:2034   */\n      gt\n        /* \"#utility.yul\":2006:2118   */\n      iszero\n      tag_86\n      jumpi\n        /* \"#utility.yul\":2037:2116   */\n      tag_87\n      tag_29\n      jump\t// in\n    tag_87:\n        /* \"#utility.yul\":2006:2118   */\n    tag_86:\n        /* \"#utility.yul\":2127:2181   */\n      tag_88\n        /* \"#utility.yul\":2174:2180   */\n      dup5\n        /* \"#utility.yul\":2169:2172   */\n      dup3\n        /* \"#utility.yul\":2164:2167   */\n      dup6\n        /* \"#utility.yul\":2127:2181   */\n      tag_35\n      jump\t// in\n    tag_88:\n        /* \"#utility.yul\":1846:2187   */\n      pop\n        /* \"#utility.yul\":1762:2187   */\n      swap4\n      swap3\n      pop\n      pop\n      pop\n      jump\t// out\n        /* \"#utility.yul\":2207:2547   */\n    tag_37:\n        /* \"#utility.yul\":2263:2268   */\n      0x00\n        /* \"#utility.yul\":2312:2315   */\n      dup3\n        /* \"#utility.yul\":2305:2309   */\n      0x1f\n        /* \"#utility.yul\":2297:2303   */\n      dup4\n        /* \"#utility.yul\":2293:2310   */\n      add\n        /* \"#utility.yul\":2289:2316   */\n      slt\n        /* \"#utility.yul\":2279:2401   */\n      tag_90\n      jumpi\n        /* \"#utility.yul\":2320:2399   */\n      tag_91\n      tag_28\n      jump\t// in\n    tag_91:\n        /* \"#utility.yul\":2279:2401   */\n    tag_90:\n        /* \"#utility.yul\":2437:2443   */\n      dup2\n        /* \"#utility.yul\":2424:2444   */\n      calldataload\n        /* \"#utility.yul\":2462:2541   */\n      tag_92\n        /* \"#utility.yul\":2537:2540   */\n      dup5\n        /* \"#utility.yul\":2529:2535   */\n      dup3\n        /* \"#utility.yul\":2522:2526   */\n      0x20\n        /* \"#utility.yul\":2514:2520   */\n      dup7\n        /* \"#utility.yul\":2510:2527   */\n      add\n        /* \"#utility.yul\":2462:2541   */\n      tag_36\n      jump\t// in\n    tag_92:\n        /* \"#utility.yul\":2453:2541   */\n      swap2\n      pop\n        /* \"#utility.yul\":2269:2547   */\n      pop\n        /* \"#utility.yul\":2207:2547   */\n      swap3\n      swap2\n      pop\n      pop\n      jump\t// out\n        /* \"#utility.yul\":2553:2630   */\n    tag_38:\n        /* \"#utility.yul\":2590:2597   */\n      0x00\n        /* \"#utility.yul\":2619:2624   */\n      dup2\n        /* \"#utility.yul\":2608:2624   */\n      swap1\n      pop\n        /* \"#utility.yul\":2553:2630   */\n      swap2\n      swap1\n      pop\n      jump\t// out\n        /* \"#utility.yul\":2636:2758   */\n    tag_39:\n        /* \"#utility.yul\":2709:2733   */\n      tag_95\n        /* \"#utility.yul\":2727:2732   */\n      dup2\n        /* \"#utility.yul\":2709:2733   */\n      tag_38\n      jump\t// in\n    tag_95:\n        /* \"#utility.yul\":2702:2707   */\n      dup2\n        /* \"#utility.yul\":2699:2734   */\n      eq\n        /* \"#utility.yul\":2689:2752   */\n      tag_96\n      jumpi\n        /* \"#utility.yul\":2748:2749   */\n      0x00\n        /* \"#utility.yul\":2745:2746   */\n      dup1\n        /* \"#utility.yul\":2738:2750   */\n      revert\n        /* \"#utility.yul\":2689:2752   */\n    tag_96:\n        /* \"#utility.yul\":2636:2758   */\n      pop\n      jump\t// out\n        /* \"#utility.yul\":2764:2903   */\n    tag_40:\n        /* \"#utility.yul\":2810:2815   */\n      0x00\n        /* \"#utility.yul\":2848:2854   */\n      dup2\n        /* \"#utility.yul\":2835:2855   */\n      calldataload\n        /* \"#utility.yul\":2826:2855   */\n      swap1\n      pop\n        /* \"#utility.yul\":2864:2897   */\n      tag_98\n        /* \"#utility.yul\":2891:2896   */\n      dup2\n        /* \"#utility.yul\":2864:2897   */\n      tag_39\n      jump\t// in\n    tag_98:\n        /* \"#utility.yul\":2764:2903   */\n      swap3\n      swap2\n      pop\n      pop\n      jump\t// out\n        /* \"#utility.yul\":2909:3563   */\n    tag_7:\n        /* \"#utility.yul\":2987:2993   */\n      0x00\n        /* \"#utility.yul\":2995:3001   */\n      dup1\n        /* \"#utility.yul\":3044:3046   */\n      0x40\n        /* \"#utility.yul\":3032:3041   */\n      dup4\n        /* \"#utility.yul\":3023:3030   */\n      dup6\n        /* \"#utility.yul\":3019:3042   */\n      sub\n        /* \"#utility.yul\":3015:3047   */\n      slt\n        /* \"#utility.yul\":3012:3131   */\n      iszero\n      tag_100\n      jumpi\n        /* \"#utility.yul\":3050:3129   */\n      tag_101\n      tag_26\n      jump\t// in\n    tag_101:\n        /* \"#utility.yul\":3012:3131   */\n    tag_100:\n        /* \"#utility.yul\":3198:3199   */\n      0x00\n        /* \"#utility.yul\":3187:3196   */\n      dup4\n        /* \"#utility.yul\":3183:3200   */\n      add\n        /* \"#utility.yul\":3170:3201   */\n      calldataload\n        /* \"#utility.yul\":3228:3246   */\n      0xffffffffffffffff\n        /* \"#utility.yul\":3220:3226   */\n      dup2\n        /* \"#utility.yul\":3217:3247   */\n      gt\n        /* \"#utility.yul\":3214:3331   */\n      iszero\n      tag_102\n      jumpi\n        /* \"#utility.yul\":3250:3329   */\n      tag_103\n      tag_27\n      jump\t// in\n    tag_103:\n        /* \"#utility.yul\":3214:3331   */\n    tag_102:\n        /* \"#utility.yul\":3355:3418   */\n      tag_104\n        /* \"#utility.yul\":3410:3417   */\n      dup6\n        /* \"#utility.yul\":3401:3407   */\n      dup3\n        /* \"#utility.yul\":3390:3399   */\n      dup7\n        /* \"#utility.yul\":3386:3408   */\n      add\n        /* \"#utility.yul\":3355:3418   */\n      tag_37\n      jump\t// in\n    tag_104:\n        /* \"#utility.yul\":3345:3418   */\n      swap3\n      pop\n        /* \"#utility.yul\":3141:3428   */\n      pop\n        /* \"#utility.yul\":3467:3469   */\n      0x20\n        /* \"#utility.yul\":3493:3546   */\n      tag_105\n        /* \"#utility.yul\":3538:3545   */\n      dup6\n        /* \"#utility.yul\":3529:3535   */\n      dup3\n        /* \"#utility.yul\":3518:3527   */\n      dup7\n        /* \"#utility.yul\":3514:3536   */\n      add\n        /* \"#utility.yul\":3493:3546   */\n      tag_40\n      jump\t// in\n    tag_105:\n        /* \"#utility.yul\":3483:3546   */\n      swap2\n      pop\n        /* \"#utility.yul\":3438:3556   */\n      pop\n        /* \"#utility.yul\":2909:3563   */\n      swap3\n      pop\n      swap3\n      swap1\n      pop\n      jump\t// out\n        /* \"#utility.yul\":3569:3668   */\n    tag_41:\n        /* \"#utility.yul\":3621:3627   */\n      0x00\n        /* \"#utility.yul\":3655:3660   */\n      dup2\n        /* \"#utility.yul\":3649:3661   */\n      mload\n        /* \"#utility.yul\":3639:3661   */\n      swap1\n      pop\n        /* \"#utility.yul\":3569:3668   */\n      swap2\n      swap1\n      pop\n      jump\t// out\n        /* \"#utility.yul\":3674:3833   */\n    tag_42:\n        /* \"#utility.yul\":3748:3759   */\n      0x00\n        /* \"#utility.yul\":3782:3788   */\n      dup3\n        /* \"#utility.yul\":3777:3780   */\n      dup3\n        /* \"#utility.yul\":3770:3789   */\n      mstore\n        /* \"#utility.yul\":3822:3826   */\n      0x20\n        /* \"#utility.yul\":3817:3820   */\n      dup3\n        /* \"#utility.yul\":3813:3827   */\n      add\n        /* \"#utility.yul\":3798:3827   */\n      swap1\n      pop\n        /* \"#utility.yul\":3674:3833   */\n      swap3\n      swap2\n      pop\n      pop\n      jump\t// out\n        /* \"#utility.yul\":3839:4085   */\n    tag_43:\n        /* \"#utility.yul\":3920:3921   */\n      0x00\n        /* \"#utility.yul\":3930:4043   */\n    tag_109:\n        /* \"#utility.yul\":3944:3950   */\n      dup4\n        /* \"#utility.yul\":3941:3942   */\n      dup2\n        /* \"#utility.yul\":3938:3951   */\n      lt\n        /* \"#utility.yul\":3930:4043   */\n      iszero\n      tag_111\n      jumpi\n        /* \"#utility.yul\":4029:4030   */\n      dup1\n        /* \"#utility.yul\":4024:4027   */\n      dup3\n        /* \"#utility.yul\":4020:4031   */\n      add\n        /* \"#utility.yul\":4014:4032   */\n      mload\n        /* \"#utility.yul\":4010:4011   */\n      dup2\n        /* \"#utility.yul\":4005:4008   */\n      dup5\n        /* \"#utility.yul\":4001:4012   */\n      add\n        /* \"#utility.yul\":3994:4033   */\n      mstore\n        /* \"#utility.yul\":3966:3968   */\n      0x20\n        /* \"#utility.yul\":3963:3964   */\n      dup2\n        /* \"#utility.yul\":3959:3969   */\n      add\n        /* \"#utility.yul\":3954:3969   */\n      swap1\n      pop\n        /* \"#utility.yul\":3930:4043   */\n      jump(tag_109)\n    tag_111:\n        /* \"#utility.yul\":4077:4078   */\n      0x00\n        /* \"#utility.yul\":4068:4074   */\n      dup5\n        /* \"#utility.yul\":4063:4066   */\n      dup5\n        /* \"#utility.yul\":4059:4075   */\n      add\n        /* \"#utility.yul\":4052:4079   */\n      mstore\n        /* \"#utility.yul\":3901:4085   */\n      pop\n        /* \"#utility.yul\":3839:4085   */\n      pop\n      pop\n      pop\n      jump\t// out\n        /* \"#utility.yul\":4091:4448   */\n    tag_44:\n        /* \"#utility.yul\":4169:4172   */\n      0x00\n        /* \"#utility.yul\":4197:4236   */\n      tag_113\n        /* \"#utility.yul\":4230:4235   */\n      dup3\n        /* \"#utility.yul\":4197:4236   */\n      tag_41\n      jump\t// in\n    tag_113:\n        /* \"#utility.yul\":4252:4313   */\n      tag_114\n        /* \"#utility.yul\":4306:4312   */\n      dup2\n        /* \"#utility.yul\":4301:4304   */\n      dup6\n        /* \"#utility.yul\":4252:4313   */\n      tag_42\n      jump\t// in\n    tag_114:\n        /* \"#utility.yul\":4245:4313   */\n      swap4\n      pop\n        /* \"#utility.yul\":4322:4387   */\n      tag_115\n        /* \"#utility.yul\":4380:4386   */\n      dup2\n        /* \"#utility.yul\":4375:4378   */\n      dup6\n        /* \"#utility.yul\":4368:4372   */\n      0x20\n        /* \"#utility.yul\":4361:4366   */\n      dup7\n        /* \"#utility.yul\":4357:4373   */\n      add\n        /* \"#utility.yul\":4322:4387   */\n      tag_43\n      jump\t// in\n    tag_115:\n        /* \"#utility.yul\":4412:4441   */\n      tag_116\n        /* \"#utility.yul\":4434:4440   */\n      dup2\n        /* \"#utility.yul\":4412:4441   */\n      tag_30\n      jump\t// in\n    tag_116:\n        /* \"#utility.yul\":4407:4410   */\n      dup5\n        /* \"#utility.yul\":4403:4442   */\n      add\n        /* \"#utility.yul\":4396:4442   */\n      swap2\n      pop\n        /* \"#utility.yul\":4173:4448   */\n      pop\n        /* \"#utility.yul\":4091:4448   */\n      swap3\n      swap2\n      pop\n      pop\n      jump\t// out\n        /* \"#utility.yul\":4454:4562   */\n    tag_45:\n        /* \"#utility.yul\":4531:4555   */\n      tag_118\n        /* \"#utility.yul\":4549:4554   */\n      dup2\n        /* \"#utility.yul\":4531:4555   */\n      tag_38\n      jump\t// in\n    tag_118:\n        /* \"#utility.yul\":4526:4529   */\n      dup3\n        /* \"#utility.yul\":4519:4556   */\n      mstore\n        /* \"#utility.yul\":4454:4562   */\n      pop\n      pop\n      jump\t// out\n        /* \"#utility.yul\":4622:5224   */\n    tag_46:\n        /* \"#utility.yul\":4735:4738   */\n      0x00\n        /* \"#utility.yul\":4771:4775   */\n      0x40\n        /* \"#utility.yul\":4766:4769   */\n      dup4\n        /* \"#utility.yul\":4762:4776   */\n      add\n        /* \"#utility.yul\":4858:4862   */\n      0x00\n        /* \"#utility.yul\":4851:4856   */\n      dup4\n        /* \"#utility.yul\":4847:4863   */\n      add\n        /* \"#utility.yul\":4841:4864   */\n      mload\n        /* \"#utility.yul\":4911:4914   */\n      dup5\n        /* \"#utility.yul\":4905:4909   */\n      dup3\n        /* \"#utility.yul\":4901:4915   */\n      sub\n        /* \"#utility.yul\":4894:4898   */\n      0x00\n        /* \"#utility.yul\":4889:4892   */\n      dup7\n        /* \"#utility.yul\":4885:4899   */\n      add\n        /* \"#utility.yul\":4878:4916   */\n      mstore\n        /* \"#utility.yul\":4937:5010   */\n      tag_120\n        /* \"#utility.yul\":5005:5009   */\n      dup3\n        /* \"#utility.yul\":4991:5003   */\n      dup3\n        /* \"#utility.yul\":4937:5010   */\n      tag_44\n      jump\t// in\n    tag_120:\n        /* \"#utility.yul\":4929:5010   */\n      swap2\n      pop\n        /* \"#utility.yul\":4786:5021   */\n      pop\n        /* \"#utility.yul\":5105:5109   */\n      0x20\n        /* \"#utility.yul\":5098:5103   */\n      dup4\n        /* \"#utility.yul\":5094:5110   */\n      add\n        /* \"#utility.yul\":5088:5111   */\n      mload\n        /* \"#utility.yul\":5124:5187   */\n      tag_121\n        /* \"#utility.yul\":5181:5185   */\n      0x20\n        /* \"#utility.yul\":5176:5179   */\n      dup7\n        /* \"#utility.yul\":5172:5186   */\n      add\n        /* \"#utility.yul\":5158:5170   */\n      dup3\n        /* \"#utility.yul\":5124:5187   */\n      tag_45\n      jump\t// in\n    tag_121:\n        /* \"#utility.yul\":5031:5197   */\n      pop\n        /* \"#utility.yul\":5214:5218   */\n      dup1\n        /* \"#utility.yul\":5207:5218   */\n      swap2\n      pop\n        /* \"#utility.yul\":4740:5224   */\n      pop\n        /* \"#utility.yul\":4622:5224   */\n      swap3\n      swap2\n      pop\n      pop\n      jump\t// out\n        /* \"#utility.yul\":5230:5591   */\n    tag_12:\n        /* \"#utility.yul\":5367:5371   */\n      0x00\n        /* \"#utility.yul\":5405:5407   */\n      0x20\n        /* \"#utility.yul\":5394:5403   */\n      dup3\n        /* \"#utility.yul\":5390:5408   */\n      add\n        /* \"#utility.yul\":5382:5408   */\n      swap1\n      pop\n        /* \"#utility.yul\":5454:5463   */\n      dup2\n        /* \"#utility.yul\":5448:5452   */\n      dup2\n        /* \"#utility.yul\":5444:5464   */\n      sub\n        /* \"#utility.yul\":5440:5441   */\n      0x00\n        /* \"#utility.yul\":5429:5438   */\n      dup4\n        /* \"#utility.yul\":5425:5442   */\n      add\n        /* \"#utility.yul\":5418:5465   */\n      mstore\n        /* \"#utility.yul\":5482:5584   */\n      tag_123\n        /* \"#utility.yul\":5579:5583   */\n      dup2\n        /* \"#utility.yul\":5570:5576   */\n      dup5\n        /* \"#utility.yul\":5482:5584   */\n      tag_46\n      jump\t// in\n    tag_123:\n        /* \"#utility.yul\":5474:5584   */\n      swap1\n      pop\n        /* \"#utility.yul\":5230:5591   */\n      swap3\n      swap2\n      pop\n      pop\n      jump\t// out\n        /* \"#utility.yul\":5597:5777   */\n    tag_47:\n        /* \"#utility.yul\":5645:5722   */\n      0x4e487b7100000000000000000000000000000000000000000000000000000000\n        /* \"#utility.yul\":5642:5643   */\n      0x00\n        /* \"#utility.yul\":5635:5723   */\n      mstore\n        /* \"#utility.yul\":5742:5746   */\n      0x22\n        /* \"#utility.yul\":5739:5740   */\n      0x04\n        /* \"#utility.yul\":5732:5747   */\n      mstore\n        /* \"#utility.yul\":5766:5770   */\n      0x24\n        /* \"#utility.yul\":5763:5764   */\n      0x00\n        /* \"#utility.yul\":5756:5771   */\n      revert\n        /* \"#utility.yul\":5783:6103   */\n    tag_20:\n        /* \"#utility.yul\":5827:5833   */\n      0x00\n        /* \"#utility.yul\":5864:5865   */\n      0x02\n        /* \"#utility.yul\":5858:5862   */\n      dup3\n        /* \"#utility.yul\":5854:5866   */\n      div\n        /* \"#utility.yul\":5844:5866   */\n      swap1\n      pop\n        /* \"#utility.yul\":5911:5912   */\n      0x01\n        /* \"#utility.yul\":5905:5909   */\n      dup3\n        /* \"#utility.yul\":5901:5913   */\n      and\n        /* \"#utility.yul\":5932:5950   */\n      dup1\n        /* \"#utility.yul\":5922:6003   */\n      tag_126\n      jumpi\n        /* \"#utility.yul\":5988:5992   */\n      0x7f\n        /* \"#utility.yul\":5980:5986   */\n      dup3\n        /* \"#utility.yul\":5976:5993   */\n      and\n        /* \"#utility.yul\":5966:5993   */\n      swap2\n      pop\n        /* \"#utility.yul\":5922:6003   */\n    tag_126:\n        /* \"#utility.yul\":6050:6052   */\n      0x20\n        /* \"#utility.yul\":6042:6048   */\n      dup3\n        /* \"#utility.yul\":6039:6053   */\n      lt\n        /* \"#utility.yul\":6019:6037   */\n      dup2\n        /* \"#utility.yul\":6016:6054   */\n      sub\n        /* \"#utility.yul\":6013:6097   */\n      tag_127\n      jumpi\n        /* \"#utility.yul\":6069:6087   */\n      tag_128\n      tag_47\n      jump\t// in\n    tag_128:\n        /* \"#utility.yul\":6013:6097   */\n    tag_127:\n        /* \"#utility.yul\":5834:6103   */\n      pop\n        /* \"#utility.yul\":5783:6103   */\n      swap2\n      swap1\n      pop\n      jump\t// out\n        /* \"#utility.yul\":6109:6250   */\n    tag_48:\n        /* \"#utility.yul\":6158:6162   */\n      0x00\n        /* \"#utility.yul\":6181:6184   */\n      dup2\n        /* \"#utility.yul\":6173:6184   */\n      swap1\n      pop\n        /* \"#utility.yul\":6204:6207   */\n      dup2\n        /* \"#utility.yul\":6201:6202   */\n      0x00\n        /* \"#utility.yul\":6194:6208   */\n      mstore\n        /* \"#utility.yul\":6238:6242   */\n      0x20\n        /* \"#utility.yul\":6235:6236   */\n      0x00\n        /* \"#utility.yul\":6225:6243   */\n      keccak256\n        /* \"#utility.yul\":6217:6243   */\n      swap1\n      pop\n        /* \"#utility.yul\":6109:6250   */\n      swap2\n      swap1\n      pop\n      jump\t// out\n        /* \"#utility.yul\":6256:6349   */\n    tag_49:\n        /* \"#utility.yul\":6293:6299   */\n      0x00\n        /* \"#utility.yul\":6340:6342   */\n      0x20\n        /* \"#utility.yul\":6335:6337   */\n      0x1f\n        /* \"#utility.yul\":6328:6333   */\n      dup4\n        /* \"#utility.yul\":6324:6338   */\n      add\n        /* \"#utility.yul\":6320:6343   */\n      div\n        /* \"#utility.yul\":6310:6343   */\n      swap1\n      pop\n        /* \"#utility.yul\":6256:6349   */\n      swap2\n      swap1\n      pop\n      jump\t// out\n        /* \"#utility.yul\":6355:6462   */\n    tag_50:\n        /* \"#utility.yul\":6399:6407   */\n      0x00\n        /* \"#utility.yul\":6449:6454   */\n      dup3\n        /* \"#utility.yul\":6443:6447   */\n      dup3\n        /* \"#utility.yul\":6439:6455   */\n      shl\n        /* \"#utility.yul\":6418:6455   */\n      swap1\n      pop\n        /* \"#utility.yul\":6355:6462   */\n      swap3\n      swap2\n      pop\n      pop\n      jump\t// out\n        /* \"#utility.yul\":6468:6861   */\n    tag_51:\n        /* \"#utility.yul\":6537:6543   */\n      0x00\n        /* \"#utility.yul\":6587:6588   */\n      0x08\n        /* \"#utility.yul\":6575:6585   */\n      dup4\n        /* \"#utility.yul\":6571:6589   */\n      mul\n        /* \"#utility.yul\":6610:6707   */\n      tag_133\n        /* \"#utility.yul\":6640:6706   */\n      0xffffffffffffffffffffffffffffffffffffffffffffffffffffffffffffffff\n        /* \"#utility.yul\":6629:6638   */\n      dup3\n        /* \"#utility.yul\":6610:6707   */\n      tag_50\n      jump\t// in\n    tag_133:\n        /* \"#utility.yul\":6728:6767   */\n      tag_134\n        /* \"#utility.yul\":6758:6766   */\n      dup7\n        /* \"#utility.yul\":6747:6756   */\n      dup4\n        /* \"#utility.yul\":6728:6767   */\n      tag_50\n      jump\t// in\n    tag_134:\n        /* \"#utility.yul\":6716:6767   */\n      swap6\n      pop\n        /* \"#utility.yul\":6800:6804   */\n      dup1\n        /* \"#utility.yul\":6796:6805   */\n      not\n        /* \"#utility.yul\":6789:6794   */\n      dup5\n        /* \"#utility.yul\":6785:6806   */\n      and\n        /* \"#utility.yul\":6776:6806   */\n      swap4\n      pop\n        /* \"#utility.yul\":6849:6853   */\n      dup1\n        /* \"#utility.yul\":6839:6847   */\n      dup7\n        /* \"#utility.yul\":6835:6854   */\n      and\n        /* \"#utility.yul\":6828:6833   */\n      dup5\n        /* \"#utility.yul\":6825:6855   */\n      or\n        /* \"#utility.yul\":6815:6855   */\n      swap3\n      pop\n        /* \"#utility.yul\":6544:6861   */\n      pop\n      pop\n        /* \"#utility.yul\":6468:6861   */\n      swap4\n      swap3\n      pop\n      pop\n      pop\n      jump\t// out\n        /* \"#utility.yul\":6867:6927   */\n    tag_52:\n        /* \"#utility.yul\":6895:6898   */\n      0x00\n        /* \"#utility.yul\":6916:6921   */\n      dup2\n        /* \"#utility.yul\":6909:6921   */\n      swap1\n      pop\n        /* \"#utility.yul\":6867:6927   */\n      swap2\n      swap1\n      pop\n      jump\t// out\n        /* \"#utility.yul\":6933:7075   */\n    tag_53:\n        /* \"#utility.yul\":6983:6992   */\n      0x00\n        /* \"#utility.yul\":7016:7069   */\n      tag_137\n        /* \"#utility.yul\":7034:7068   */\n      tag_138\n        /* \"#utility.yul\":7043:7067   */\n      tag_139\n        /* \"#utility.yul\":7061:7066   */\n      dup5\n        /* \"#utility.yul\":7043:7067   */\n      tag_38\n      jump\t// in\n    tag_139:\n        /* \"#utility.yul\":7034:7068   */\n      tag_52\n      jump\t// in\n    tag_138:\n        /* \"#utility.yul\":7016:7069   */\n      tag_38\n      jump\t// in\n    tag_137:\n        /* \"#utility.yul\":7003:7069   */\n      swap1\n      pop\n        /* \"#utility.yul\":6933:7075   */\n      swap2\n      swap1\n      pop\n      jump\t// out\n        /* \"#utility.yul\":7081:7156   */\n    tag_54:\n        /* \"#utility.yul\":7124:7127   */\n      0x00\n        /* \"#utility.yul\":7145:7150   */\n      dup2\n        /* \"#utility.yul\":7138:7150   */\n      swap1\n      pop\n        /* \"#utility.yul\":7081:7156   */\n      swap2\n      swap1\n      pop\n      jump\t// out\n        /* \"#utility.yul\":7162:7431   */\n    tag_55:\n        /* \"#utility.yul\":7272:7311   */\n      tag_142\n        /* \"#utility.yul\":7303:7310   */\n      dup4\n        /* \"#utility.yul\":7272:7311   */\n      tag_53\n      jump\t// in\n    tag_142:\n        /* \"#utility.yul\":7333:7424   */\n      tag_143\n        /* \"#utility.yul\":7382:7423   */\n      tag_144\n        /* \"#utility.yul\":7406:7422   */\n      dup3\n        /* \"#utility.yul\":7382:7423   */\n      tag_54\n      jump\t// in\n    tag_144:\n        /* \"#utility.yul\":7374:7380   */\n      dup5\n        /* \"#utility.yul\":7367:7371   */\n      dup5\n        /* \"#utility.yul\":7361:7372   */\n      sload\n        /* \"#utility.yul\":7333:7424   */\n      tag_51\n      jump\t// in\n    tag_143:\n        /* \"#utility.yul\":7327:7331   */\n      dup3\n        /* \"#utility.yul\":7320:7425   */\n      sstore\n        /* \"#utility.yul\":7238:7431   */\n      pop\n        /* \"#utility.yul\":7162:7431   */\n      pop\n      pop\n      pop\n      jump\t// out\n        /* \"#utility.yul\":7437:7510   */\n    tag_56:\n        /* \"#utility.yul\":7482:7485   */\n      0x00\n        /* \"#utility.yul\":7437:7510   */\n      swap1\n      jump\t// out\n        /* \"#utility.yul\":7516:7705   */\n    tag_57:\n        /* \"#utility.yul\":7593:7625   */\n      tag_147\n      tag_56\n      jump\t// in\n    tag_147:\n        /* \"#utility.yul\":7634:7699   */\n      tag_148\n        /* \"#utility.yul\":7692:7698   */\n      dup2\n        /* \"#utility.yul\":7684:7690   */\n      dup5\n        /* \"#utility.yul\":7678:7682   */\n      dup5\n        /* \"#utility.yul\":7634:7699   */\n      tag_55\n      jump\t// in\n    tag_148:\n        /* \"#utility.yul\":7569:7705   */\n      pop\n        /* \"#utility.yul\":7516:7705   */\n      pop\n      pop\n      jump\t// out\n        /* \"#utility.yul\":7711:7897   */\n    tag_58:\n        /* \"#utility.yul\":7771:7891   */\n    tag_150:\n        /* \"#utility.yul\":7788:7791   */\n      dup2\n        /* \"#utility.yul\":7781:7786   */\n      dup2\n        /* \"#utility.yul\":7778:7792   */\n      lt\n        /* \"#utility.yul\":7771:7891   */\n      iszero\n      tag_152\n      jumpi\n        /* \"#utility.yul\":7842:7881   */\n      tag_153\n        /* \"#utility.yul\":7879:7880   */\n      0x00\n        /* \"#utility.yul\":7872:7877   */\n      dup3\n        /* \"#utility.yul\":7842:7881   */\n      tag_57\n      jump\t// in\n    tag_153:\n        /* \"#utility.yul\":7815:7816   */\n      0x01\n        /* \"#utility.yul\":7808:7813   */\n      dup2\n        /* \"#utility.yul\":7804:7817   */\n      add\n        /* \"#utility.yul\":7795:7817   */\n      swap1\n      pop\n        /* \"#utility.yul\":7771:7891   */\n      jump(tag_150)\n    tag_152:\n        /* \"#utility.yul\":7711:7897   */\n      pop\n      pop\n      jump\t// out\n        /* \"#utility.yul\":7903:8446   */\n    tag_59:\n        /* \"#utility.yul\":8004:8006   */\n      0x1f\n        /* \"#utility.yul\":7999:8002   */\n      dup3\n        /* \"#utility.yul\":7996:8007   */\n      gt\n        /* \"#utility.yul\":7993:8439   */\n      iszero\n      tag_155\n      jumpi\n        /* \"#utility.yul\":8038:8076   */\n      tag_156\n        /* \"#utility.yul\":8070:8075   */\n      dup2\n        /* \"#utility.yul\":8038:8076   */\n      tag_48\n      jump\t// in\n    tag_156:\n        /* \"#utility.yul\":8122:8151   */\n      tag_157\n        /* \"#utility.yul\":8140:8150   */\n      dup5\n        /* \"#utility.yul\":8122:8151   */\n      tag_49\n      jump\t// in\n    tag_157:\n        /* \"#utility.yul\":8112:8120   */\n      dup2\n        /* \"#utility.yul\":8108:8152   */\n      add\n        /* \"#utility.yul\":8305:8307   */\n      0x20\n        /* \"#utility.yul\":8293:8303   */\n      dup6\n        /* \"#utility.yul\":8290:8308   */\n      lt\n        /* \"#utility.yul\":8287:8336   */\n      iszero\n      tag_158\n      jumpi\n        /* \"#utility.yul\":8326:8334   */\n      dup2\n        /* \"#utility.yul\":8311:8334   */\n      swap1\n      pop\n        /* \"#utility.yul\":8287:8336   */\n    tag_158:\n        /* \"#utility.yul\":8349:8429   */\n      tag_159\n        /* \"#utility.yul\":8405:8427   */\n      tag_160\n        /* \"#utility.yul\":8423:8426   */\n      dup6\n        /* \"#utility.yul\":8405:8427   */\n      tag_49\n      jump\t// in\n    tag_160:\n        /* \"#utility.yul\":8395:8403   */\n      dup4\n        /* \"#utility.yul\":8391:8428   */\n      add\n        /* \"#utility.yul\":8378:8389   */\n      dup3\n        /* \"#utility.yul\":8349:8429   */\n      tag_58\n      jump\t// in\n    tag_159:\n        /* \"#utility.yul\":8008:8439   */\n      pop\n      pop\n        /* \"#utility.yul\":7993:8439   */\n    tag_155:\n        /* \"#utility.yul\":7903:8446   */\n      pop\n      pop\n      pop\n      jump\t// out\n        /* \"#utility.yul\":8452:8569   */\n    tag_60:\n        /* \"#utility.yul\":8506:8514   */\n      0x00\n        /* \"#utility.yul\":8556:8561   */\n      dup3\n        /* \"#utility.yul\":8550:8554   */\n      dup3\n        /* \"#utility.yul\":8546:8562   */\n      shr\n        /* \"#utility.yul\":8525:8562   */\n      swap1\n      pop\n        /* \"#utility.yul\":8452:8569   */\n      swap3\n      swap2\n      pop\n      pop\n      jump\t// out\n        /* \"#utility.yul\":8575:8744   */\n    tag_61:\n        /* \"#utility.yul\":8619:8625   */\n      0x00\n        /* \"#utility.yul\":8652:8703   */\n      tag_163\n        /* \"#utility.yul\":8700:8701   */\n      0x00\n        /* \"#utility.yul\":8696:8702   */\n      not\n        /* \"#utility.yul\":8688:8693   */\n      dup5\n        /* \"#utility.yul\":8685:8686   */\n      0x08\n        /* \"#utility.yul\":8681:8694   */\n      mul\n        /* \"#utility.yul\":8652:8703   */\n      tag_60\n      jump\t// in\n    tag_163:\n        /* \"#utility.yul\":8648:8704   */\n      not\n        /* \"#utility.yul\":8733:8737   */\n      dup1\n        /* \"#utility.yul\":8727:8731   */\n      dup4\n        /* \"#utility.yul\":8723:8738   */\n      and\n        /* \"#utility.yul\":8713:8738   */\n      swap2\n      pop\n        /* \"#utility.yul\":8626:8744   */\n      pop\n        /* \"#utility.yul\":8575:8744   */\n      swap3\n      swap2\n      pop\n      pop\n      jump\t// out\n        /* \"#utility.yul\":8749:9044   */\n    tag_62:\n        /* \"#utility.yul\":8825:8829   */\n      0x00\n        /* \"#utility.yul\":8971:9000   */\n      tag_165\n        /* \"#utility.yul\":8996:8999   */\n      dup4\n        /* \"#utility.yul\":8990:8994   */\n      dup4\n        /* \"#utility.yul\":8971:9000   */\n      tag_61\n      jump\t// in\n    tag_165:\n        /* \"#utility.yul\":8963:9000   */\n      swap2\n      pop\n        /* \"#utility.yul\":9033:9036   */\n      dup3\n        /* \"#utility.yul\":9030:9031   */\n      0x02\n        /* \"#utility.yul\":9026:9037   */\n      mul\n        /* \"#utility.yul\":9020:9024   */\n      dup3\n        /* \"#utility.yul\":9017:9038   */\n      or\n        /* \"#utility.yul\":9009:9038   */\n      swap1\n      pop\n        /* \"#utility.yul\":8749:9044   */\n      swap3\n      swap2\n      pop\n      pop\n      jump\t// out\n        /* \"#utility.yul\":9049:10444   */\n    tag_15:\n        /* \"#utility.yul\":9166:9203   */\n      tag_167\n        /* \"#utility.yul\":9199:9202   */\n      dup3\n        /* \"#utility.yul\":9166:9203   */\n      tag_41\n      jump\t// in\n    tag_167:\n        /* \"#utility.yul\":9268:9286   */\n      0xffffffffffffffff\n        /* \"#utility.yul\":9260:9266   */\n      dup2\n        /* \"#utility.yul\":9257:9287   */\n      gt\n        /* \"#utility.yul\":9254:9310   */\n      iszero\n      tag_168\n      jumpi\n        /* \"#utility.yul\":9290:9308   */\n      tag_169\n      tag_31\n      jump\t// in\n    tag_169:\n        /* \"#utility.yul\":9254:9310   */\n    tag_168:\n        /* \"#utility.yul\":9334:9372   */\n      tag_170\n        /* \"#utility.yul\":9366:9370   */\n      dup3\n        /* \"#utility.yul\":9360:9371   */\n      sload\n        /* \"#utility.yul\":9334:9372   */\n      tag_20\n      jump\t// in\n    tag_170:\n        /* \"#utility.yul\":9419:9486   */\n      tag_171\n        /* \"#utility.yul\":9479:9485   */\n      dup3\n        /* \"#utility.yul\":9471:9477   */\n      dup3\n        /* \"#utility.yul\":9465:9469   */\n      dup6\n        /* \"#utility.yul\":9419:9486   */\n      tag_59\n      jump\t// in\n    tag_171:\n        /* \"#utility.yul\":9513:9514   */\n      0x00\n        /* \"#utility.yul\":9537:9541   */\n      0x20\n        /* \"#utility.yul\":9524:9541   */\n      swap1\n      pop\n        /* \"#utility.yul\":9569:9571   */\n      0x1f\n        /* \"#utility.yul\":9561:9567   */\n      dup4\n        /* \"#utility.yul\":9558:9572   */\n      gt\n        /* \"#utility.yul\":9586:9587   */\n      0x01\n        /* \"#utility.yul\":9581:10199   */\n      dup2\n      eq\n      tag_173\n      jumpi\n        /* \"#utility.yul\":10243:10244   */\n      0x00\n        /* \"#utility.yul\":10260:10266   */\n      dup5\n        /* \"#utility.yul\":10257:10334   */\n      iszero\n      tag_174\n      jumpi\n        /* \"#utility.yul\":10309:10318   */\n      dup3\n        /* \"#utility.yul\":10304:10307   */\n      dup8\n        /* \"#utility.yul\":10300:10319   */\n      add\n        /* \"#utility.yul\":10294:10320   */\n      mload\n        /* \"#utility.yul\":10285:10320   */\n      swap1\n      pop\n        /* \"#utility.yul\":10257:10334   */\n    tag_174:\n        /* \"#utility.yul\":10360:10427   */\n      tag_175\n        /* \"#utility.yul\":10420:10426   */\n      dup6\n        /* \"#utility.yul\":10413:10418   */\n      dup3\n        /* \"#utility.yul\":10360:10427   */\n      tag_62\n      jump\t// in\n    tag_175:\n        /* \"#utility.yul\":10354:10358   */\n      dup7\n        /* \"#utility.yul\":10347:10428   */\n      sstore\n        /* \"#utility.yul\":10216:10438   */\n      pop\n        /* \"#utility.yul\":9551:10438   */\n      jump(tag_172)\n        /* \"#utility.yul\":9581:10199   */\n    tag_173:\n        /* \"#utility.yul\":9633:9637   */\n      0x1f\n        /* \"#utility.yul\":9629:9638   */\n      not\n        /* \"#utility.yul\":9621:9627   */\n      dup5\n        /* \"#utility.yul\":9617:9639   */\n      and\n        /* \"#utility.yul\":9667:9704   */\n      tag_176\n        /* \"#utility.yul\":9699:9703   */\n      dup7\n        /* \"#utility.yul\":9667:9704   */\n      tag_48\n      jump\t// in\n    tag_176:\n        /* \"#utility.yul\":9726:9727   */\n      0x00\n        /* \"#utility.yul\":9740:9948   */\n    tag_177:\n        /* \"#utility.yul\":9754:9761   */\n      dup3\n        /* \"#utility.yul\":9751:9752   */\n      dup2\n        /* \"#utility.yul\":9748:9762   */\n      lt\n        /* \"#utility.yul\":9740:9948   */\n      iszero\n      tag_179\n      jumpi\n        /* \"#utility.yul\":9833:9842   */\n      dup5\n        /* \"#utility.yul\":9828:9831   */\n      dup10\n        /* \"#utility.yul\":9824:9843   */\n      add\n        /* \"#utility.yul\":9818:9844   */\n      mload\n        /* \"#utility.yul\":9810:9816   */\n      dup3\n        /* \"#utility.yul\":9803:9845   */\n      sstore\n        /* \"#utility.yul\":9884:9885   */\n      0x01\n        /* \"#utility.yul\":9876:9882   */\n      dup3\n        /* \"#utility.yul\":9872:9886   */\n      add\n        /* \"#utility.yul\":9862:9886   */\n      swap2\n      pop\n        /* \"#utility.yul\":9931:9933   */\n      0x20\n        /* \"#utility.yul\":9920:9929   */\n      dup6\n        /* \"#utility.yul\":9916:9934   */\n      add\n        /* \"#utility.yul\":9903:9934   */\n      swap5\n      pop\n        /* \"#utility.yul\":9777:9781   */\n      0x20\n        /* \"#utility.yul\":9774:9775   */\n      dup2\n        /* \"#utility.yul\":9770:9782   */\n      add\n        /* \"#utility.yul\":9765:9782   */\n      swap1\n      pop\n        /* \"#utility.yul\":9740:9948   */\n      jump(tag_177)\n    tag_179:\n        /* \"#utility.yul\":9976:9982   */\n      dup7\n        /* \"#utility.yul\":9967:9974   */\n      dup4\n        /* \"#utility.yul\":9964:9983   */\n      lt\n        /* \"#utility.yul\":9961:10140   */\n      iszero\n      tag_180\n      jumpi\n        /* \"#utility.yul\":10034:10043   */\n      dup5\n        /* \"#utility.yul\":10029:10032   */\n      dup10\n        /* \"#utility.yul\":10025:10044   */\n      add\n        /* \"#utility.yul\":10019:10045   */\n      mload\n        /* \"#utility.yul\":10077:10125   */\n      tag_181\n        /* \"#utility.yul\":10119:10123   */\n      0x1f\n        /* \"#utility.yul\":10111:10117   */\n      dup10\n        /* \"#utility.yul\":10107:10124   */\n      and\n        /* \"#utility.yul\":10096:10105   */\n      dup3\n        /* \"#utility.yul\":10077:10125   */\n      tag_61\n      jump\t// in\n    tag_181:\n        /* \"#utility.yul\":10069:10075   */\n      dup4\n        /* \"#utility.yul\":10062:10126   */\n      sstore\n        /* \"#utility.yul\":9984:10140   */\n      pop\n        /* \"#utility.yul\":9961:10140   */\n    tag_180:\n        /* \"#utility.yul\":10186:10187   */\n      0x01\n        /* \"#utility.yul\":10182:10183   */\n      0x02\n        /* \"#utility.yul\":10174:10180   */\n      dup9\n        /* \"#utility.yul\":10170:10184   */\n      mul\n        /* \"#utility.yul\":10166:10188   */\n      add\n        /* \"#utility.yul\":10160:10164   */\n      dup9\n        /* \"#utility.yul\":10153:10189   */\n      sstore\n        /* \"#utility.yul\":9588:10199   */\n      pop\n      pop\n      pop\n        /* \"#utility.yul\":9551:10438   */\n    tag_172:\n      pop\n        /* \"#utility.yul\":9141:10444   */\n      pop\n      pop\n      pop\n        /* \"#utility.yul\":9049:10444   */\n      pop\n      pop\n      jump\t// out\n\n    auxdata: 0xa26469706673582212204eadc91ea4cf93519d1b90085773c220a0c5aaa6d1240c3e1e6db3967f1dab7e64736f6c63430008120033\n}\n",
				"bytecode": {
					"linkReferences": {},
					"object": "608060405234801561001057600080fd5b5061076f806100206000396000f3fe608060405234801561001057600080fd5b50600436106100365760003560e01c80639b4d52dd1461003b578063b439548d14610057575b600080fd5b61005560048036038101906100509190610312565b610075565b005b61005f6100b2565b60405161006c9190610439565b60405180910390f35b6040518060400160405280838152602001828152506000808201518160000190816100a09190610667565b50602082015181600101559050505050565b6100ba610168565b60006040518060400160405290816000820180546100d79061048a565b80601f01602080910402602001604051908101604052809291908181526020018280546101039061048a565b80156101505780601f1061012557610100808354040283529160200191610150565b820191906000526020600020905b81548152906001019060200180831161013357829003601f168201915b50505050508152602001600182015481525050905090565b604051806040016040528060608152602001600081525090565b6000604051905090565b600080fd5b600080fd5b600080fd5b600080fd5b6000601f19601f8301169050919050565b7f4e487b7100000000000000000000000000000000000000000000000000000000600052604160045260246000fd5b6101e9826101a0565b810181811067ffffffffffffffff82111715610208576102076101b1565b5b80604052505050565b600061021b610182565b905061022782826101e0565b919050565b600067ffffffffffffffff821115610247576102466101b1565b5b610250826101a0565b9050602081019050919050565b82818337600083830152505050565b600061027f61027a8461022c565b610211565b90508281526020810184848401111561029b5761029a61019b565b5b6102a684828561025d565b509392505050565b600082601f8301126102c3576102c2610196565b5b81356102d384826020860161026c565b91505092915050565b6000819050919050565b6102ef816102dc565b81146102fa57600080fd5b50565b60008135905061030c816102e6565b92915050565b600080604083850312156103295761032861018c565b5b600083013567ffffffffffffffff81111561034757610346610191565b5b610353858286016102ae565b9250506020610364858286016102fd565b9150509250929050565b600081519050919050565b600082825260208201905092915050565b60005b838110156103a857808201518184015260208101905061038d565b60008484015250505050565b60006103bf8261036e565b6103c98185610379565b93506103d981856020860161038a565b6103e2816101a0565b840191505092915050565b6103f6816102dc565b82525050565b6000604083016000830151848203600086015261041982826103b4565b915050602083015161042e60208601826103ed565b508091505092915050565b6000602082019050818103600083015261045381846103fc565b905092915050565b7f4e487b7100000000000000000000000000000000000000000000000000000000600052602260045260246000fd5b600060028204905060018216806104a257607f821691505b6020821081036104b5576104b461045b565b5b50919050565b60008190508160005260206000209050919050565b60006020601f8301049050919050565b600082821b905092915050565b60006008830261051d7fffffffffffffffffffffffffffffffffffffffffffffffffffffffffffffffff826104e0565b61052786836104e0565b95508019841693508086168417925050509392505050565b6000819050919050565b600061056461055f61055a846102dc565b61053f565b6102dc565b9050919050565b6000819050919050565b61057e83610549565b61059261058a8261056b565b8484546104ed565b825550505050565b600090565b6105a761059a565b6105b2818484610575565b505050565b5b818110156105d6576105cb60008261059f565b6001810190506105b8565b5050565b601f82111561061b576105ec816104bb565b6105f5846104d0565b81016020851015610604578190505b610618610610856104d0565b8301826105b7565b50505b505050565b600082821c905092915050565b600061063e60001984600802610620565b1980831691505092915050565b6000610657838361062d565b9150826002028217905092915050565b6106708261036e565b67ffffffffffffffff811115610689576106886101b1565b5b610693825461048a565b61069e8282856105da565b600060209050601f8311600181146106d157600084156106bf578287015190505b6106c9858261064b565b865550610731565b601f1984166106df866104bb565b60005b82811015610707578489015182556001820191506020850194506020810190506106e2565b868310156107245784890151610720601f89168261062d565b8355505b6001600288020188555050505b50505050505056fea26469706673582212204eadc91ea4cf93519d1b90085773c220a0c5aaa6d1240c3e1e6db3967f1dab7e64736f6c63430008120033",
					"opcodes": "PUSH1 0x80 PUSH1 0x40 MSTORE CALLVALUE DUP1 ISZERO PUSH2 0x10 JUMPI PUSH1 0x0 DUP1 REVERT JUMPDEST POP PUSH2 0x76F DUP1 PUSH2 0x20 PUSH1 0x0 CODECOPY PUSH1 0x0 RETURN INVALID PUSH1 0x80 PUSH1 0x40 MSTORE CALLVALUE DUP1 ISZERO PUSH2 0x10 JUMPI PUSH1 0x0 DUP1 REVERT JUMPDEST POP PUSH1 0x4 CALLDATASIZE LT PUSH2 0x36 JUMPI PUSH1 0x0 CALLDATALOAD PUSH1 0xE0 SHR DUP1 PUSH4 0x9B4D52DD EQ PUSH2 0x3B JUMPI DUP1 PUSH4 0xB439548D EQ PUSH2 0x57 JUMPI JUMPDEST PUSH1 0x0 DUP1 REVERT JUMPDEST PUSH2 0x55 PUSH1 0x4 DUP1 CALLDATASIZE SUB DUP2 ADD SWAP1 PUSH2 0x50 SWAP2 SWAP1 PUSH2 0x312 JUMP JUMPDEST PUSH2 0x75 JUMP JUMPDEST STOP JUMPDEST PUSH2 0x5F PUSH2 0xB2 JUMP JUMPDEST PUSH1 0x40 MLOAD PUSH2 0x6C SWAP2 SWAP1 PUSH2 0x439 JUMP JUMPDEST PUSH1 0x40 MLOAD DUP1 SWAP2 SUB SWAP1 RETURN JUMPDEST PUSH1 0x40 MLOAD DUP1 PUSH1 0x40 ADD PUSH1 0x40 MSTORE DUP1 DUP4 DUP2 MSTORE PUSH1 0x20 ADD DUP3 DUP2 MSTORE POP PUSH1 0x0 DUP1 DUP3 ADD MLOAD DUP2 PUSH1 0x0 ADD SWAP1 DUP2 PUSH2 0xA0 SWAP2 SWAP1 PUSH2 0x667 JUMP JUMPDEST POP PUSH1 0x20 DUP3 ADD MLOAD DUP2 PUSH1 0x1 ADD SSTORE SWAP1 POP POP POP POP JUMP JUMPDEST PUSH2 0xBA PUSH2 0x168 JUMP JUMPDEST PUSH1 0x0 PUSH1 0x40 MLOAD DUP1 PUSH1 0x40 ADD PUSH1 0x40 MSTORE SWAP1 DUP2 PUSH1 0x0 DUP3 ADD DUP1 SLOAD PUSH2 0xD7 SWAP1 PUSH2 0x48A JUMP JUMPDEST DUP1 PUSH1 0x1F ADD PUSH1 0x20 DUP1 SWAP2 DIV MUL PUSH1 0x20 ADD PUSH1 0x40 MLOAD SWAP1 DUP2 ADD PUSH1 0x40 MSTORE DUP1 SWAP3 SWAP2 SWAP1 DUP2 DUP2 MSTORE PUSH1 0x20 ADD DUP3 DUP1 SLOAD PUSH2 0x103 SWAP1 PUSH2 0x48A JUMP JUMPDEST DUP1 ISZERO PUSH2 0x150 JUMPI DUP1 PUSH1 0x1F LT PUSH2 0x125 JUMPI PUSH2 0x100 DUP1 DUP4 SLOAD DIV MUL DUP4 MSTORE SWAP2 PUSH1 0x20 ADD SWAP2 PUSH2 0x150 JUMP JUMPDEST DUP3 ADD SWAP2 SWAP1 PUSH1 0x0 MSTORE PUSH1 0x20 PUSH1 0x0 KECCAK256 SWAP1 JUMPDEST DUP2 SLOAD DUP2 MSTORE SWAP1 PUSH1 0x1 ADD SWAP1 PUSH1 0x20 ADD DUP1 DUP4 GT PUSH2 0x133 JUMPI DUP3 SWAP1 SUB PUSH1 0x1F AND DUP3 ADD SWAP2 JUMPDEST POP POP POP POP POP DUP2 MSTORE PUSH1 0x20 ADD PUSH1 0x1 DUP3 ADD SLOAD DUP2 MSTORE POP POP SWAP1 POP SWAP1 JUMP JUMPDEST PUSH1 0x40 MLOAD DUP1 PUSH1 0x40 ADD PUSH1 0x40 MSTORE DUP1 PUSH1 0x60 DUP2 MSTORE PUSH1 0x20 ADD PUSH1 0x0 DUP2 MSTORE POP SWAP1 JUMP JUMPDEST PUSH1 0x0 PUSH1 0x40 MLOAD SWAP1 POP SWAP1 JUMP JUMPDEST PUSH1 0x0 DUP1 REVERT JUMPDEST PUSH1 0x0 DUP1 REVERT JUMPDEST PUSH1 0x0 DUP1 REVERT JUMPDEST PUSH1 0x0 DUP1 REVERT JUMPDEST PUSH1 0x0 PUSH1 0x1F NOT PUSH1 0x1F DUP4 ADD AND SWAP1 POP SWAP2 SWAP1 POP JUMP JUMPDEST PUSH32 0x4E487B7100000000000000000000000000000000000000000000000000000000 PUSH1 0x0 MSTORE PUSH1 0x41 PUSH1 0x4 MSTORE PUSH1 0x24 PUSH1 0x0 REVERT JUMPDEST PUSH2 0x1E9 DUP3 PUSH2 0x1A0 JUMP JUMPDEST DUP2 ADD DUP2 DUP2 LT PUSH8 0xFFFFFFFFFFFFFFFF DUP3 GT OR ISZERO PUSH2 0x208 JUMPI PUSH2 0x207 PUSH2 0x1B1 JUMP JUMPDEST JUMPDEST DUP1 PUSH1 0x40 MSTORE POP POP POP JUMP JUMPDEST PUSH1 0x0 PUSH2 0x21B PUSH2 0x182 JUMP JUMPDEST SWAP1 POP PUSH2 0x227 DUP3 DUP3 PUSH2 0x1E0 JUMP JUMPDEST SWAP2 SWAP1 POP JUMP JUMPDEST PUSH1 0x0 PUSH8 0xFFFFFFFFFFFFFFFF DUP3 GT ISZERO PUSH2 0x247 JUMPI PUSH2 0x246 PUSH2 0x1B1 JUMP JUMPDEST JUMPDEST PUSH2 0x250 DUP3 PUSH2 0x1A0 JUMP JUMPDEST SWAP1 POP PUSH1 0x20 DUP2 ADD SWAP1 POP SWAP2 SWAP1 POP JUMP JUMPDEST DUP3 DUP2 DUP4 CALLDATACOPY PUSH1 0x0 DUP4 DUP4 ADD MSTORE POP POP POP JUMP JUMPDEST PUSH1 0x0 PUSH2 0x27F PUSH2 0x27A DUP5 PUSH2 0x22C JUMP JUMPDEST PUSH2 0x211 JUMP JUMPDEST SWAP1 POP DUP3 DUP2 MSTORE PUSH1 0x20 DUP2 ADD DUP5 DUP5 DUP5 ADD GT ISZERO PUSH2 0x29B JUMPI PUSH2 0x29A PUSH2 0x19B JUMP JUMPDEST JUMPDEST PUSH2 0x2A6 DUP5 DUP3 DUP6 PUSH2 0x25D JUMP JUMPDEST POP SWAP4 SWAP3 POP POP POP JUMP JUMPDEST PUSH1 0x0 DUP3 PUSH1 0x1F DUP4 ADD SLT PUSH2 0x2C3 JUMPI PUSH2 0x2C2 PUSH2 0x196 JUMP JUMPDEST JUMPDEST DUP2 CALLDATALOAD PUSH2 0x2D3 DUP5 DUP3 PUSH1 0x20 DUP7 ADD PUSH2 0x26C JUMP JUMPDEST SWAP2 POP POP SWAP3 SWAP2 POP POP JUMP JUMPDEST PUSH1 0x0 DUP2 SWAP1 POP SWAP2 SWAP1 POP JUMP JUMPDEST PUSH2 0x2EF DUP2 PUSH2 0x2DC JUMP JUMPDEST DUP2 EQ PUSH2 0x2FA JUMPI PUSH1 0x0 DUP1 REVERT JUMPDEST POP JUMP JUMPDEST PUSH1 0x0 DUP2 CALLDATALOAD SWAP1 POP PUSH2 0x30C DUP2 PUSH2 0x2E6 JUMP JUMPDEST SWAP3 SWAP2 POP POP JUMP JUMPDEST PUSH1 0x0 DUP1 PUSH1 0x40 DUP4 DUP6 SUB SLT ISZERO PUSH2 0x329 JUMPI PUSH2 0x328 PUSH2 0x18C JUMP JUMPDEST JUMPDEST PUSH1 0x0 DUP4 ADD CALLDATALOAD PUSH8 0xFFFFFFFFFFFFFFFF DUP2 GT ISZERO PUSH2 0x347 JUMPI PUSH2 0x346 PUSH2 0x191 JUMP JUMPDEST JUMPDEST PUSH2 0x353 DUP6 DUP3 DUP7 ADD PUSH2 0x2AE JUMP JUMPDEST SWAP3 POP POP PUSH1 0x20 PUSH2 0x364 DUP6 DUP3 DUP7 ADD PUSH2 0x2FD JUMP JUMPDEST SWAP2 POP POP SWAP3 POP SWAP3 SWAP1 POP JUMP JUMPDEST PUSH1 0x0 DUP2 MLOAD SWAP1 POP SWAP2 SWAP1 POP JUMP JUMPDEST PUSH1 0x0 DUP3 DUP3 MSTORE PUSH1 0x20 DUP3 ADD SWAP1 POP SWAP3 SWAP2 POP POP JUMP JUMPDEST PUSH1 0x0 JUMPDEST DUP4 DUP2 LT ISZERO PUSH2 0x3A8 JUMPI DUP1 DUP3 ADD MLOAD DUP2 DUP5 ADD MSTORE PUSH1 0x20 DUP2 ADD SWAP1 POP PUSH2 0x38D JUMP JUMPDEST PUSH1 0x0 DUP5 DUP5 ADD MSTORE POP POP POP POP JUMP JUMPDEST PUSH1 0x0 PUSH2 0x3BF DUP3 PUSH2 0x36E JUMP JUMPDEST PUSH2 0x3C9 DUP2 DUP6 PUSH2 0x379 JUMP JUMPDEST SWAP4 POP PUSH2 0x3D9 DUP2 DUP6 PUSH1 0x20 DUP7 ADD PUSH2 0x38A JUMP JUMPDEST PUSH2 0x3E2 DUP2 PUSH2 0x1A0 JUMP JUMPDEST DUP5 ADD SWAP2 POP POP SWAP3 SWAP2 POP POP JUMP JUMPDEST PUSH2 0x3F6 DUP2 PUSH2 0x2DC JUMP JUMPDEST DUP3 MSTORE POP POP JUMP JUMPDEST PUSH1 0x0 PUSH1 0x40 DUP4 ADD PUSH1 0x0 DUP4 ADD MLOAD DUP5 DUP3 SUB PUSH1 0x0 DUP7 ADD MSTORE PUSH2 0x419 DUP3 DUP3 PUSH2 0x3B4 JUMP JUMPDEST SWAP2 POP POP PUSH1 0x20 DUP4 ADD MLOAD PUSH2 0x42E PUSH1 0x20 DUP7 ADD DUP3 PUSH2 0x3ED JUMP JUMPDEST POP DUP1 SWAP2 POP POP SWAP3 SWAP2 POP POP JUMP JUMPDEST PUSH1 0x0 PUSH1 0x20 DUP3 ADD SWAP1 POP DUP2 DUP2 SUB PUSH1 0x0 DUP4 ADD MSTORE PUSH2 0x453 DUP2 DUP5 PUSH2 0x3FC JUMP JUMPDEST SWAP1 POP SWAP3 SWAP2 POP POP JUMP JUMPDEST PUSH32 0x4E487B7100000000000000000000000000000000000000000000000000000000 PUSH1 0x0 MSTORE PUSH1 0x22 PUSH1 0x4 MSTORE PUSH1 0x24 PUSH1 0x0 REVERT JUMPDEST PUSH1 0x0 PUSH1 0x2 DUP3 DIV SWAP1 POP PUSH1 0x1 DUP3 AND DUP1 PUSH2 0x4A2 JUMPI PUSH1 0x7F DUP3 AND SWAP2 POP JUMPDEST PUSH1 0x20 DUP3 LT DUP2 SUB PUSH2 0x4B5 JUMPI PUSH2 0x4B4 PUSH2 0x45B JUMP JUMPDEST JUMPDEST POP SWAP2 SWAP1 POP JUMP JUMPDEST PUSH1 0x0 DUP2 SWAP1 POP DUP2 PUSH1 0x0 MSTORE PUSH1 0x20 PUSH1 0x0 KECCAK256 SWAP1 POP SWAP2 SWAP1 POP JUMP JUMPDEST PUSH1 0x0 PUSH1 0x20 PUSH1 0x1F DUP4 ADD DIV SWAP1 POP SWAP2 SWAP1 POP JUMP JUMPDEST PUSH1 0x0 DUP3 DUP3 SHL SWAP1 POP SWAP3 SWAP2 POP POP JUMP JUMPDEST PUSH1 0x0 PUSH1 0x8 DUP4 MUL PUSH2 0x51D PUSH32 0xFFFFFFFFFFFFFFFFFFFFFFFFFFFFFFFFFFFFFFFFFFFFFFFFFFFFFFFFFFFFFFFF DUP3 PUSH2 0x4E0 JUMP JUMPDEST PUSH2 0x527 DUP7 DUP4 PUSH2 0x4E0 JUMP JUMPDEST SWAP6 POP DUP1 NOT DUP5 AND SWAP4 POP DUP1 DUP7 AND DUP5 OR SWAP3 POP POP POP SWAP4 SWAP3 POP POP POP JUMP JUMPDEST PUSH1 0x0 DUP2 SWAP1 POP SWAP2 SWAP1 POP JUMP JUMPDEST PUSH1 0x0 PUSH2 0x564 PUSH2 0x55F PUSH2 0x55A DUP5 PUSH2 0x2DC JUMP JUMPDEST PUSH2 0x53F JUMP JUMPDEST PUSH2 0x2DC JUMP JUMPDEST SWAP1 POP SWAP2 SWAP1 POP JUMP JUMPDEST PUSH1 0x0 DUP2 SWAP1 POP SWAP2 SWAP1 POP JUMP JUMPDEST PUSH2 0x57E DUP4 PUSH2 0x549 JUMP JUMPDEST PUSH2 0x592 PUSH2 0x58A DUP3 PUSH2 0x56B JUMP JUMPDEST DUP5 DUP5 SLOAD PUSH2 0x4ED JUMP JUMPDEST DUP3 SSTORE POP POP POP POP JUMP JUMPDEST PUSH1 0x0 SWAP1 JUMP JUMPDEST PUSH2 0x5A7 PUSH2 0x59A JUMP JUMPDEST PUSH2 0x5B2 DUP2 DUP5 DUP5 PUSH2 0x575 JUMP JUMPDEST POP POP POP JUMP JUMPDEST JUMPDEST DUP2 DUP2 LT ISZERO PUSH2 0x5D6 JUMPI PUSH2 0x5CB PUSH1 0x0 DUP3 PUSH2 0x59F JUMP JUMPDEST PUSH1 0x1 DUP2 ADD SWAP1 POP PUSH2 0x5B8 JUMP JUMPDEST POP POP JUMP JUMPDEST PUSH1 0x1F DUP3 GT ISZERO PUSH2 0x61B JUMPI PUSH2 0x5EC DUP2 PUSH2 0x4BB JUMP JUMPDEST PUSH2 0x5F5 DUP5 PUSH2 0x4D0 JUMP JUMPDEST DUP2 ADD PUSH1 0x20 DUP6 LT ISZERO PUSH2 0x604 JUMPI DUP2 SWAP1 POP JUMPDEST PUSH2 0x618 PUSH2 0x610 DUP6 PUSH2 0x4D0 JUMP JUMPDEST DUP4 ADD DUP3 PUSH2 0x5B7 JUMP JUMPDEST POP POP JUMPDEST POP POP POP JUMP JUMPDEST PUSH1 0x0 DUP3 DUP3 SHR SWAP1 POP SWAP3 SWAP2 POP POP JUMP JUMPDEST PUSH1 0x0 PUSH2 0x63E PUSH1 0x0 NOT DUP5 PUSH1 0x8 MUL PUSH2 0x620 JUMP JUMPDEST NOT DUP1 DUP4 AND SWAP2 POP POP SWAP3 SWAP2 POP POP JUMP JUMPDEST PUSH1 0x0 PUSH2 0x657 DUP4 DUP4 PUSH2 0x62D JUMP JUMPDEST SWAP2 POP DUP3 PUSH1 0x2 MUL DUP3 OR SWAP1 POP SWAP3 SWAP2 POP POP JUMP JUMPDEST PUSH2 0x670 DUP3 PUSH2 0x36E JUMP JUMPDEST PUSH8 0xFFFFFFFFFFFFFFFF DUP2 GT ISZERO PUSH2 0x689 JUMPI PUSH2 0x688 PUSH2 0x1B1 JUMP JUMPDEST JUMPDEST PUSH2 0x693 DUP3 SLOAD PUSH2 0x48A JUMP JUMPDEST PUSH2 0x69E DUP3 DUP3 DUP6 PUSH2 0x5DA JUMP JUMPDEST PUSH1 0x0 PUSH1 0x20 SWAP1 POP PUSH1 0x1F DUP4 GT PUSH1 0x1 DUP2 EQ PUSH2 0x6D1 JUMPI PUSH1 0x0 DUP5 ISZERO PUSH2 0x6BF JUMPI DUP3 DUP8 ADD MLOAD SWAP1 POP JUMPDEST PUSH2 0x6C9 DUP6 DUP3 PUSH2 0x64B JUMP JUMPDEST DUP7 SSTORE POP PUSH2 0x731 JUMP JUMPDEST PUSH1 0x1F NOT DUP5 AND PUSH2 0x6DF DUP7 PUSH2 0x4BB JUMP JUMPDEST PUSH1 0x0 JUMPDEST DUP3 DUP2 LT ISZERO PUSH2 0x707 JUMPI DUP5 DUP10 ADD MLOAD DUP3 SSTORE PUSH1 0x1 DUP3 ADD SWAP2 POP PUSH1 0x20 DUP6 ADD SWAP5 POP PUSH1 0x20 DUP2 ADD SWAP1 POP PUSH2 0x6E2 JUMP JUMPDEST DUP7 DUP4 LT ISZERO PUSH2 0x724 JUMPI DUP5 DUP10 ADD MLOAD PUSH2 0x720 PUSH1 0x1F DUP10 AND DUP3 PUSH2 0x62D JUMP JUMPDEST DUP4 SSTORE POP JUMPDEST PUSH1 0x1 PUSH1 0x2 DUP9 MUL ADD DUP9 SSTORE POP POP POP JUMPDEST POP POP POP POP POP POP JUMP INVALID LOG2 PUSH5 0x6970667358 0x22 SLT KECCAK256 0x4E 0xAD 0xC9 0x1E LOG4 0xCF SWAP4 MLOAD SWAP14 SHL SWAP1 ADDMOD JUMPI PUSH20 0xC220A0C5AAA6D1240C3E1E6DB3967F1DAB7E6473 PUSH16 0x6C634300081200330000000000000000 "
				},
				"gasEstimates": {
					"creation": {
						"codeDepositCost": "380600",
						"executionCost": "418",
						"totalCost": "381018"
					},
					"external": {
						"getStudent()": "infinite",
						"setStudent(string,uint256)": "infinite"
					}
				},
				"methodIdentifiers": {
					"getStudent()": "b439548d",
					"setStudent(string,uint256)": "9b4d52dd"
				}
			},
			"storageLayout": {
				"storage": [
					{
						"astId": 9,
						"contract": "contracts/5_Struct.sol:Struct",
						"label": "s",
						"offset": 0,
						"slot": "0",
						"type": "t_struct(Student)6_storage"
					}
				],
				"types": {
					"t_string_storage": {
						"encoding": "bytes",
						"label": "string",
						"numberOfBytes": "32"
					},
					"t_struct(Student)6_storage": {
						"encoding": "inplace",
						"label": "struct Struct.Student",
						"members": [
							{
								"astId": 3,
								"contract": "contracts/5_Struct.sol:Struct",
								"label": "name",
								"offset": 0,
								"slot": "0",
								"type": "t_string_storage"
							},
							{
								"astId": 5,
								"contract": "contracts/5_Struct.sol:Struct",
								"label": "number",
								"offset": 0,
								"slot": "1",
								"type": "t_uint256"
							}
						],
						"numberOfBytes": "64"
					},
					"t_uint256": {
						"encoding": "inplace",
						"label": "uint256",
						"numberOfBytes": "32"
					}
				}
			},
			"userdoc": {
				"kind": "user",
				"methods": {},
				"version": 1
			}
		}
	}
}